{
  "contractName": "HelloBlockchain",
  "abi": [
    {
      "inputs": [
        {
          "internalType": "address",
          "name": "walletAddress",
          "type": "address"
        },
        {
          "internalType": "address[]",
          "name": "tokenAddress",
          "type": "address[]"
        }
      ],
      "name": "getBalances",
      "outputs": [
        {
          "components": [
            {
              "internalType": "address",
              "name": "token",
              "type": "address"
            },
            {
              "internalType": "uint256",
              "name": "balance",
              "type": "uint256"
            }
          ],
          "internalType": "struct HelloBlockchain.token[]",
          "name": "",
          "type": "tuple[]"
        }
      ],
      "stateMutability": "nonpayable",
      "type": "function"
    }
  ],
  "bytecode": "0x608060405234801561001057600080fd5b506107ef806100206000396000f3fe608060405234801561001057600080fd5b506004361061002b5760003560e01c80636a385ae914610030575b600080fd5b61004a6004803603810190610045919061047b565b610060565b60405161005791906105dd565b60405180910390f35b60606000825167ffffffffffffffff81111561007f5761007e610338565b5b6040519080825280602002602001820160405280156100b857816020015b6100a5610280565b81526020019060019003908161009d5790505b50905060005b8351811015610275576000808583815181106100dd576100dc6105ff565b5b602002602001015173ffffffffffffffffffffffffffffffffffffffff168760405160240161010c919061063d565b6040516020818303038152906040527f70a08231000000000000000000000000000000000000000000000000000000007bffffffffffffffffffffffffffffffffffffffffffffffffffffffff19166020820180517bffffffffffffffffffffffffffffffffffffffffffffffffffffffff838183161783525050505060405161019691906106d2565b6000604051808303816000865af19150503d80600081146101d3576040519150601f19603f3d011682016040523d82523d6000602084013e6101d8565b606091505b50915091508115610260576000818060200190518101906101f99190610715565b90506040518060400160405280888681518110610219576102186105ff565b5b602002602001015173ffffffffffffffffffffffffffffffffffffffff16815260200182815250858581518110610253576102526105ff565b5b6020026020010181905250505b5050808061026d90610771565b9150506100be565b508091505092915050565b6040518060400160405280600073ffffffffffffffffffffffffffffffffffffffff168152602001600081525090565b6000604051905090565b600080fd5b600080fd5b600073ffffffffffffffffffffffffffffffffffffffff82169050919050565b60006102ef826102c4565b9050919050565b6102ff816102e4565b811461030a57600080fd5b50565b60008135905061031c816102f6565b92915050565b600080fd5b6000601f19601f8301169050919050565b7f4e487b7100000000000000000000000000000000000000000000000000000000600052604160045260246000fd5b61037082610327565b810181811067ffffffffffffffff8211171561038f5761038e610338565b5b80604052505050565b60006103a26102b0565b90506103ae8282610367565b919050565b600067ffffffffffffffff8211156103ce576103cd610338565b5b602082029050602081019050919050565b600080fd5b60006103f76103f2846103b3565b610398565b9050808382526020820190506020840283018581111561041a576104196103df565b5b835b81811015610443578061042f888261030d565b84526020840193505060208101905061041c565b5050509392505050565b600082601f83011261046257610461610322565b5b81356104728482602086016103e4565b91505092915050565b60008060408385031215610492576104916102ba565b5b60006104a08582860161030d565b925050602083013567ffffffffffffffff8111156104c1576104c06102bf565b5b6104cd8582860161044d565b9150509250929050565b600081519050919050565b600082825260208201905092915050565b6000819050602082019050919050565b61050c816102e4565b82525050565b6000819050919050565b61052581610512565b82525050565b6040820160008201516105416000850182610503565b506020820151610554602085018261051c565b50505050565b6000610566838361052b565b60408301905092915050565b6000602082019050919050565b600061058a826104d7565b61059481856104e2565b935061059f836104f3565b8060005b838110156105d05781516105b7888261055a565b97506105c283610572565b9250506001810190506105a3565b5085935050505092915050565b600060208201905081810360008301526105f7818461057f565b905092915050565b7f4e487b7100000000000000000000000000000000000000000000000000000000600052603260045260246000fd5b610637816102e4565b82525050565b6000602082019050610652600083018461062e565b92915050565b600081519050919050565b600081905092915050565b60005b8381101561068c578082015181840152602081019050610671565b8381111561069b576000848401525b50505050565b60006106ac82610658565b6106b68185610663565b93506106c681856020860161066e565b80840191505092915050565b60006106de82846106a1565b915081905092915050565b6106f281610512565b81146106fd57600080fd5b50565b60008151905061070f816106e9565b92915050565b60006020828403121561072b5761072a6102ba565b5b600061073984828501610700565b91505092915050565b7f4e487b7100000000000000000000000000000000000000000000000000000000600052601160045260246000fd5b600061077c82610512565b91507fffffffffffffffffffffffffffffffffffffffffffffffffffffffffffffffff82036107ae576107ad610742565b5b60018201905091905056fea264697066735822122089436e86812e67a05a5a78cf788cf52b7f9dc9f74d9c724392ce7fbc54ebc6da64736f6c634300080d0033",
  "immutableReferences": {},
  "source": "pragma solidity >=0.4.25 <0.9.0;\n\ncontract HelloBlockchain {\n    struct token {\n        address token;\n        uint256 balance;\n    }\n\n    function getBalances(address walletAddress, address[] memory tokenAddress) public returns(token[] memory){\n        //cant push or pull if the array is not in storage so i make a fixed size array with \n        //the max possible lenght\n        token[] memory res = new token[](tokenAddress.length); \n\n        for (uint i = 0; i < tokenAddress.length; i++) {\n        (bool success, bytes memory data) = address(tokenAddress[i]).call(abi.encodeWithSignature(\"balanceOf(address)\", walletAddress));\n        if (success) {\n            uint256 amount = abi.decode(data, (uint256));\n            res[i]= token(tokenAddress[i], amount);\n            }\n        }\n        return res;\n    }\n}",
  "sourcePath": "/Users/zhangmingqi/Desktop/Switcheo-code-challenge/src/problem5/contracts/Solution.sol",
  "compiler": {
    "name": "solc",
    "version": "0.8.13+commit.abaa5c0e.Emscripten.clang"
  },
  "schemaVersion": "3.4.11",
  "updatedAt": "2023-01-20T08:19:42.864Z",
  "devdoc": {
    "kind": "dev",
    "methods": {},
    "version": 1
  },
  "userdoc": {
    "kind": "user",
    "methods": {},
    "version": 1
  }
}