{
  "contractName": "MetaCoin",
  "abi": [
    {
      "inputs": [],
      "stateMutability": "nonpayable",
      "type": "constructor"
    },
    {
      "anonymous": false,
      "inputs": [
        {
          "indexed": true,
          "internalType": "address",
          "name": "_from",
          "type": "address"
        },
        {
          "indexed": true,
          "internalType": "address",
          "name": "_to",
          "type": "address"
        },
        {
          "indexed": false,
          "internalType": "uint256",
          "name": "_value",
          "type": "uint256"
        }
      ],
      "name": "Transfer",
      "type": "event"
    },
    {
      "inputs": [
        {
          "internalType": "address",
          "name": "receiver",
          "type": "address"
        },
        {
          "internalType": "uint256",
          "name": "amount",
          "type": "uint256"
        }
      ],
      "name": "sendCoin",
      "outputs": [
        {
          "internalType": "bool",
          "name": "sufficient",
          "type": "bool"
        }
      ],
      "stateMutability": "nonpayable",
      "type": "function"
    },
    {
      "inputs": [
        {
          "internalType": "address",
          "name": "addr",
          "type": "address"
        }
      ],
      "name": "getBalanceInEth",
      "outputs": [
        {
          "internalType": "uint256",
          "name": "",
          "type": "uint256"
        }
      ],
      "stateMutability": "view",
      "type": "function",
      "constant": true
    },
    {
      "inputs": [
        {
          "internalType": "address",
          "name": "addr",
          "type": "address"
        }
      ],
      "name": "getBalance",
      "outputs": [
        {
          "internalType": "uint256",
          "name": "",
          "type": "uint256"
        }
      ],
      "stateMutability": "view",
      "type": "function",
      "constant": true
    },
    {
      "inputs": [
        {
          "internalType": "address",
          "name": "addr",
          "type": "address"
        },
        {
          "internalType": "address[]",
          "name": "tokens",
          "type": "address[]"
        }
      ],
      "name": "getBalances",
      "outputs": [
        {
          "components": [
            {
              "internalType": "address",
              "name": "token",
              "type": "address"
            },
            {
              "internalType": "uint256",
              "name": "balance",
              "type": "uint256"
            }
          ],
          "internalType": "struct MetaCoin.token_amount[]",
          "name": "",
          "type": "tuple[]"
        }
      ],
      "stateMutability": "view",
      "type": "function",
      "constant": true
    }
  ],
  "bytecode": "0x608060405234801561001057600080fd5b506127106000803273ffffffffffffffffffffffffffffffffffffffff1673ffffffffffffffffffffffffffffffffffffffff1681526020019081526020016000208190555061094e806100656000396000f3fe608060405234801561001057600080fd5b506004361061004c5760003560e01c80636a385ae9146100515780637bd703e81461008157806390b98a11146100b1578063f8b2cb4f146100e1575b600080fd5b61006b60048036038101906100669190610523565b610111565b6040516100789190610685565b60405180910390f35b61009b600480360381019061009691906106a7565b610119565b6040516100a891906106e3565b60405180910390f35b6100cb60048036038101906100c6919061072a565b6101a5565b6040516100d89190610785565b60405180910390f35b6100fb60048036038101906100f691906106a7565b610310565b60405161010891906106e3565b60405180910390f35b606092915050565b600073__ConvertLib____________________________6396e4ee3d61013e84610310565b60026040518363ffffffff1660e01b815260040161015d9291906107f4565b602060405180830381865af415801561017a573d6000803e3d6000fd5b505050506040513d601f19601f8201168201806040525081019061019e9190610832565b9050919050565b6000816000803373ffffffffffffffffffffffffffffffffffffffff1673ffffffffffffffffffffffffffffffffffffffff1681526020019081526020016000205410156101f6576000905061030a565b816000803373ffffffffffffffffffffffffffffffffffffffff1673ffffffffffffffffffffffffffffffffffffffff1681526020019081526020016000206000828254610244919061088e565b92505081905550816000808573ffffffffffffffffffffffffffffffffffffffff1673ffffffffffffffffffffffffffffffffffffffff168152602001908152602001600020600082825461029991906108c2565b925050819055508273ffffffffffffffffffffffffffffffffffffffff163373ffffffffffffffffffffffffffffffffffffffff167fddf252ad1be2c89b69c2b068fc378daa952ba7f163c4a11628f55a4df523b3ef846040516102fd91906106e3565b60405180910390a3600190505b92915050565b60008060008373ffffffffffffffffffffffffffffffffffffffff1673ffffffffffffffffffffffffffffffffffffffff168152602001908152602001600020549050919050565b6000604051905090565b600080fd5b600080fd5b600073ffffffffffffffffffffffffffffffffffffffff82169050919050565b60006103978261036c565b9050919050565b6103a78161038c565b81146103b257600080fd5b50565b6000813590506103c48161039e565b92915050565b600080fd5b6000601f19601f8301169050919050565b7f4e487b7100000000000000000000000000000000000000000000000000000000600052604160045260246000fd5b610418826103cf565b810181811067ffffffffffffffff82111715610437576104366103e0565b5b80604052505050565b600061044a610358565b9050610456828261040f565b919050565b600067ffffffffffffffff821115610476576104756103e0565b5b602082029050602081019050919050565b600080fd5b600061049f61049a8461045b565b610440565b905080838252602082019050602084028301858111156104c2576104c1610487565b5b835b818110156104eb57806104d788826103b5565b8452602084019350506020810190506104c4565b5050509392505050565b600082601f83011261050a576105096103ca565b5b813561051a84826020860161048c565b91505092915050565b6000806040838503121561053a57610539610362565b5b6000610548858286016103b5565b925050602083013567ffffffffffffffff81111561056957610568610367565b5b610575858286016104f5565b9150509250929050565b600081519050919050565b600082825260208201905092915050565b6000819050602082019050919050565b6105b48161038c565b82525050565b6000819050919050565b6105cd816105ba565b82525050565b6040820160008201516105e960008501826105ab565b5060208201516105fc60208501826105c4565b50505050565b600061060e83836105d3565b60408301905092915050565b6000602082019050919050565b60006106328261057f565b61063c818561058a565b93506106478361059b565b8060005b8381101561067857815161065f8882610602565b975061066a8361061a565b92505060018101905061064b565b5085935050505092915050565b6000602082019050818103600083015261069f8184610627565b905092915050565b6000602082840312156106bd576106bc610362565b5b60006106cb848285016103b5565b91505092915050565b6106dd816105ba565b82525050565b60006020820190506106f860008301846106d4565b92915050565b610707816105ba565b811461071257600080fd5b50565b600081359050610724816106fe565b92915050565b6000806040838503121561074157610740610362565b5b600061074f858286016103b5565b925050602061076085828601610715565b9150509250929050565b60008115159050919050565b61077f8161076a565b82525050565b600060208201905061079a6000830184610776565b92915050565b6107a9816105ba565b82525050565b6000819050919050565b6000819050919050565b60006107de6107d96107d4846107af565b6107b9565b6105ba565b9050919050565b6107ee816107c3565b82525050565b600060408201905061080960008301856107a0565b61081660208301846107e5565b9392505050565b60008151905061082c816106fe565b92915050565b60006020828403121561084857610847610362565b5b60006108568482850161081d565b91505092915050565b7f4e487b7100000000000000000000000000000000000000000000000000000000600052601160045260246000fd5b6000610899826105ba565b91506108a4836105ba565b9250828210156108b7576108b661085f565b5b828203905092915050565b60006108cd826105ba565b91506108d8836105ba565b9250827fffffffffffffffffffffffffffffffffffffffffffffffffffffffffffffffff0382111561090d5761090c61085f565b5b82820190509291505056fea2646970667358221220bd51e1ce4c7935c28869b2c5f72f8fe5c7dc2918077db9fa956d55fb37aaece464736f6c634300080d0033",
  "immutableReferences": {},
  "source": "// SPDX-License-Identifier: MIT\n// Tells the Solidity compiler to compile only from v0.8.13 to v0.9.0\npragma solidity ^0.8.13;\n\nimport \"./ConvertLib.sol\";\n\n// This is just a simple example of a coin-like contract.\n// It is not ERC20 compatible and cannot be expected to talk to other\n// coin/token contracts.\n\ncontract MetaCoin {\n\tmapping (address => uint) balances;\n\n\tevent Transfer(address indexed _from, address indexed _to, uint256 _value);\n\n\tconstructor() {\n\t\tbalances[tx.origin] = 10000;\n\t}\n\n\tfunction sendCoin(address receiver, uint amount) public returns(bool sufficient) {\n\t\tif (balances[msg.sender] < amount) return false;\n\t\tbalances[msg.sender] -= amount;\n\t\tbalances[receiver] += amount;\n\t\temit Transfer(msg.sender, receiver, amount);\n\t\treturn true;\n\t}\n\n\tfunction getBalanceInEth(address addr) public view returns(uint) {\n\t\treturn ConvertLib.convert(getBalance(addr),2);\n\t}\n\n\tfunction getBalance(address addr) public view returns(uint) {\n\t\treturn balances[addr];\n\t}\n\tstruct token_amount {\n\t\taddress token;\n\t\tuint balance;\n\t}\n\tfunction getBalances(address addr, address[] memory tokens) public view returns(token_amount[] memory){\n\t\t\n\t}\n}\n",
  "sourcePath": "/Users/zhangmingqi/Desktop/Switcheo-code-challenge/src/problem5/contracts/MetaCoin.sol",
  "compiler": {
    "name": "solc",
    "version": "0.8.13+commit.abaa5c0e.Emscripten.clang"
  },
  "schemaVersion": "3.4.11",
  "updatedAt": "2023-01-20T08:21:26.058Z",
  "networkType": "ethereum",
  "devdoc": {
    "kind": "dev",
    "methods": {},
    "version": 1
  },
  "userdoc": {
    "kind": "user",
    "methods": {},
    "version": 1
  }
}